:020000040800F2
:1000000020090020CD23000815020008170200086F
:100010001B0200081F020008230200080000000065
:10002000000000000000000000000000270200089F
:1000300029020008000000002B0200082D02000821
:10004000E7230008E7230008E7230008E723000868
:10005000E7230008E7230008E7230008E723000858
:10006000E7230008E7230008E7230008E723000848
:10007000E7230008E7230008E7230008E723000838
:10008000E7230008E7230008E7230008E723000828
:10009000A9070008E7230008E7230008E723000872
:1000A000E7230008E7230008E7230008E723000808
:1000B000E7230008A3010008E7230008E72300085E
:1000C000E7230008E7230008E7230008E7230008E8
:1000D000E72300082D1A000875210008E72300080F
:1000E000E7230008E7230008E7230008E7230008C8
:1000F000E7230008E7230008E7230008E7230008B8
:10010000E7230008E7230008E7230008E7230008A7
:10011000E7230008E7230008E7230008E723000897
:10012000E7230008E7230008E7230008E723000887
:10013000DFF80CD004F040FE0048004745010008FD
:100140002009002098B000BF00BF00BF00BF00BF63
:1001500000BF00BF002016901790149015901290C9
:100160001390109011900E900F90302102A804F07F
:1001700077FD02F057F802F0BFF84FF4E13001F0DC
:10018000F6FB0020012302220321009000F040F939
:1001900001F0E6FD0A2002F082F801E000F074FAB6
:1001A000FCE710B50121184804F005FB08B100F088
:1001B0006BFA0121144804F00FFB10BD2DE9F0414A
:1001C00007460E46114804780025002030700420B0
:1001D00002F065F80D480078844212D18CB10C2CE5
:1001E00000DD0024002504E00948405D7855681CC6
:1001F000C5B2A542F8DB05480078307000200349FD
:100200000870BDE8F081000000040040800000207C
:10021000AD040020704700BFFEE700BFFEE700BF4F
:10022000FEE700BFFEE77047704770477047000069
:100230000CB50020019000906C48006840F48030BC
:100240006A49086000BF6948006800F40030009007
:100250000198401C0190009818B90198B0F5A06F62
:10026000F1D16248006800F4003010B10120009024
:1002700001E0002000900098012843D15C4800680C
:1002800040F010005A4908600846006820F003005A
:1002900008600846006840F0020008605348406863
:1002A000524948600846406848600846406840F443
:1002B000806048600846406820F47C10486008462A
:1002C000406840F4E81048600846006840F08070DC
:1002D000086000BF4548006800F000700028F9D0B1
:1002E0004248406820F003004049486008464068A2
:1002F00040F00200486000BF3C48406800F00C003D
:100300000828F9D10CBD10B5FFF792FF10BD10B54C
:100310003648006840F001003449086008464068EB
:10032000344908403149486008460068324908406D
:100330002E4908600846006820F4802008600846BE
:10034000406820F4FE0048604FF41F008860FFF70B
:10035000DAFF4FF000602949086010BD10B5002198
:1003600000200022214B5B6803F00C0121B104291D
:1003700006D0082928D107E0214B224C236027E032
:100380001F4B204C236023E0184B5B6803F4701074
:10039000164B5B6803F48032022303EB904022B9D2
:1003A000194B4343174C23600DE0104B5B6803F47B
:1003B000003323B1144B4343124C236003E0104B32
:1003C0004343104C236003E00D4B0E4C236000BFF1
:1003D00000BF064B5B68C3F303130C4CE15C094B95
:1003E0001B68CB40074C236010BD0000001002408A
:1003F000002002400000FFF8FFFFF6FE08ED00E0DD
:1004000000127A001000002000093D0014000020B6
:100410002DE9F0418AB004460D4616461F46DDF828
:1004200040800121042002F06DFB0121480602F00A
:1004300076FB4FF48050ADF8240003208DF82600A1
:1004400018208DF8270009A9FC4802F09FF84FF406
:100450000060ADF8240048208DF8270009A9F7486E
:1004600002F094F800208DF81E008DF81F008DF822
:10047000200001208DF8210000208DF822008DF849
:1004800023008DF81A808DF81B408DF81C608DF8C4
:100490001D50ADF8187006A9E94802F0B0FB002025
:1004A0008DF812008DF8130001208DF81400E54836
:1004B00000784005000CADF80800E2480078002103
:1004C00041EA405080B2ADF80A004FF6FF70ADF837
:1004D0000C00ADF80E000020ADF8100001208DF8E2
:1004E000150002A802F015FC01220221D44802F0F6
:1004F0000FFF14208DF8040002208DF80500012064
:100500008DF806008DF8070001A801F076FF0020A5
:100510000AB0BDE8F0812DE9F04186B006460F46ED
:1005200090461D4600218DF80C1001968DF80D1097
:1005300008218DF80E10C34801788DF80F108DF842
:1005400010708DF81150002406E018F804200DF109
:100550000F00E11C4254641CAC42F6DB06E00022B2
:100560002919C91C0DF10F004254641C052CF6DB3F
:1005700001A9B34802F0BCFC06B0BDE8F08170B53B
:1005800086B005460E4600218DF80C1001958DF8B9
:100590000D1008218DF80E10AA4801788DF80F1063
:1005A00019218DF81010002405E0325D0DF10F00C7
:1005B000A11C4254641C062CF7DB01A9A04802F0E0
:1005C00097FC06B070BD70B586B005460E4600219A
:1005D0008DF80C1001958DF80D1008218DF80E1076
:1005E000984801788DF80F1018218DF8101000240C
:1005F00005E0325D0DF10F00A11C4254641C062C75
:10060000F7DB01A98E4802F073FC06B070BD70B52F
:1006100086B005460E4600218DF80C1001958DF828
:100620000D1008218DF80E10864801788DF80F10F6
:1006300016218DF81010002405E0325D0DF10F0039
:10064000A11C4254641C062CF7DB01A97C4802F073
:100650004FFC06B070BD1CB5044600200090019010
:100660004F208DF800004B208DF801007548007870
:100670008DF8020000208DF8030004236A460B2148
:100680000120FFF748FF1CBD70B5002400250020A5
:100690006D4908600A21062001F0D1FB0446200ABA
:1006A0006A4908704C7000240A21072001F0C7FB3A
:1006B0000446200A65498870CC7000240A2108206D
:1006C00001F0BDFB0446200A604908714C7100240A
:1006D00070BDFEB500240020019002900025002688
:1006E0005B4840780B2806D0162819D0182826D049
:1006F000192845D143E0002406E0E01C5449085C79
:1007000001A90855601CC4B251488078A042F4DCAD
:100710004F48837801AA0B210120FFF7FCFE30E04F
:100720004C490120FFF773FF002405E04748005DB6
:1007300048490855601CC4B2062CF7DB21E0464945
:100740000120FFF740FF41488079434988703F48C6
:10075000C079C870A5208DF8000095208DF80100A3
:100760003A208DF802000321684601F0E7FB3B4880
:1007700000783949087139484078487101E000E053
:1007800000BF00BFFEBD10B53548007801280AD172
:1007900000203349087033480068C0433249C1F82B
:1007A0009401FFF796FF10BD10B586B0002401AA92
:1007B0000021234802F091FC00BF06E00DF10F007C
:1007C000005D23490855601CC4B2082CF6DBFFF716
:1007D00080FF06B010BDF0B585B007460D46002479
:1007E00012200090019000208DF808008DF809007B
:1007F0008DF80A5000BF05E0395D0DF10B00015581
:10080000601C84B2AC42F7DB69460D4802F070FB15
:100810000646002401E0601C84B23146084802F01C
:10082000FFFB18B940F6FF708442F4DB40F6FF701E
:1008300084421BDB012005B0F0BD00000008014030
:10084000006400403E00002040000020880100209D
:10085000A8000020360000204400002007000020EF
:10086000350000209401234200002342002005B0FF
:10087000F0BD30B585B0054600210C4802F0B0FC53
:1008800010B9002005B030BD6A460021074802F0CB
:1008900024FC002404E00DF10B00005D2855641CCD
:1008A000082CF8D39DF80A00ECE700000064004033
:1008B00010B5044603E0641E642001F0CCFC002C5B
:1008C000F9D110BD2DE9F04104460E4617461D46EC
:1008D0007F20206000212173206800F5C0606060E7
:1008E00061730821A1732221E1732674310A6174B6
:1008F000A774E574290A2175290C6175290EA17563
:10090000211DF84802F0F4FABDE8F0812DE9F0412C
:1009100004460F46164600257F20206000212173E3
:10092000206800F5407060606173A67300BF05E049
:10093000795D04F10F004155681CC5B2B542F7DB83
:10094000211DE84802F0D4FABDE8F08170B50446F4
:100950000D461646E4480560E4480660E449206810
:100960000860002121736173206800F5C060606039
:100970000821A1734021E1732574290A6174A674CA
:100980000021E17421756175A175211DD54802F022
:10099000AFFA70BD10B504468023002246F2400134
:1009A0002046FFF78FFF5020FFF782FFD14B002238
:1009B00046F265012046FFF785FF282001F04BFC39
:1009C000CD4B012246F27D012046FFF77BFF282018
:1009D00001F041FCC84B5B42022246F27D012046F9
:1009E000FFF770FF282001F036FCC023002246F2FA
:1009F0007E012046FFF766FF282001F02CFCBD4B4E
:100A0000002246F27F012046FFF75CFF282001F01C
:100A100022FCB84B002246F283012046FFF752FF2A
:100A2000282001F018FCB34B002246F28401204636
:100A3000FFF748FF282001F00EFCAF4B5B4200227D
:100A400046F285012046FFF73DFF282001F003FC18
:100A500000231A4646F286012046FFF733FF28207E
:100A600001F0F9FB00231A4646F288012046FFF701
:100A700029FF282001F0EFFB0223002242F64171FA
:100A80002046FFF71FFF282001F0E5FB10BD2DE9F0
:100A9000F04104460E461746984600257F20206008
:100AA00000212173206800F5C06060606173082137
:100AB000A1732221E1732674310A6174A77400BF07
:100AC00007E018F80520291D04F10F004254681CA6
:100AD000C5B2042DF5DB211D824802F009FABDE8FC
:100AE000F08170B504460D4600212173002060603E
:100AF00061730221A173E57321782174211D794866
:100B000002F0F6F970BD1FB504467C4B0FCB8DE8A3
:100B10000F0080212046FFF7E4FFC820FFF7C8FE42
:100B20006B4601224FF4A0512046FFF7B0FFC820CA
:100B3000FFF7BEFE0DF1010300224FF4B051204635
:100B4000FFF7A5FFC820FFF7B3FE6D4B01224FF45E
:100B5000B0512046FFF7B6FEC820FFF7A9FE0DF101
:100B6000020302224FF4A0512046FFF790FFC82055
:100B7000FFF79EFE0DF1030301224FF4A051204622
:100B8000FFF785FFC820FFF793FE01212046FFF7FE
:100B9000A8FF1FBD70B504460D46002121735948BA
:100BA0000068606061730421A173E573290A2174F0
:100BB000290C6174290EA174211D4A4802F098F98C
:100BC00070BD2DE9F04704460E4617461D46DDF878
:100BD00020804FF00009002121734A48406860607E
:100BE000617384F80E803178E1737178217400218B
:100BF0006174A774E574290A2175290C6175290EA1
:100C0000A175211D374802F073F9BDE8F0872DE981
:100C1000F04104460E4615461F460021217339480F
:100C2000406860606173A7733178E17371782174F3
:100C300000216174A174E574290A2175290C61757C
:100C4000290EA175211D274802F052F9BDE8F08157
:100C500010B5044601212C48FFF743FF642001F042
:100C60001EFB0823002229A12748FFF7D0FF64209C
:100C700001F015FB0823052225A12348FFF7C7FF34
:100C8000642001F00CFB0823012220A11E48FFF77D
:100C9000BEFF4FF47A7001F002FB082342F210729B
:100CA0001CA11948FFF7B3FFC82001F0F8FA082388
:100CB00042F2107218A11448FFF7A9FF642001F056
:100CC000EEFA0823224615A10F48FFF7A0FF4FF4C4
:100CD0007A7001F0E4FA0423002211A10A48FFF718
:100CE00096FF10BD00640040240000202800002072
:100CF0002C00002040420F00003665C4704F0008F1
:100D00002000FF6050000020A80200204D4F00008E
:100D1000554D000041430000444300004A56000086
:100D20004247000010B50121FE48FFF7DAFE6420BB
:100D300001F0B5FA08230022AFF23001F948FFF7BD
:100D400066FF642001F0ABFA08230522AFF24001F0
:100D5000F448FFF75CFF642001F0A1FA08230122A8
:100D6000AFF25801EF48FFF752FF642001F097FA05
:100D70000823ED4AAFF26001EA48FFF748FF64201C
:100D800001F08DFA0823E84AAFF27801E548FFF751
:100D90003EFF642001F083FAE44B002246F2FF019B
:100DA000E048FFF78FFD10BD70B50446E0492046CE
:100DB00003F061FF0446204603F098FF0546082330
:100DC0002A46DCA1D748FFF722FF022001F067FA8C
:100DD00004230022AFF2B801D248FFF718FF70BD1C
:100DE00070B5E6B04FF4C872D34902A803F01FFFF4
:100DF0000121CC48FFF775FE642001F050FA08236A
:100E00000022AFF2F801C748FFF701FF642001F0AC
:100E100046FA08230522AFF20811C248FFF7F7FE91
:100E2000642001F03CFA08230122AFF22011BD48F2
:100E3000FFF7EDFE0823C14AAFF22811B948FFF7CA
:100E4000E6FE642001F02BFA0823BC4AAFF2381109
:100E5000B448FFF7DCFE642001F021FAB84B002211
:100E600046F2FF01AF48FFF72DFDC82001F017FA49
:100E700004230122B3A1AB48FFF7C9FEC82001F04B
:100E80000EFA082001231A46AFA10090A548FFF7EB
:100E900098FEC82001F003FA082032230222AAA1FA
:100EA0000090A048FFF78DFEC82001F0F8F9082057
:100EB00001230322A4A100909A48FFF782FE002498
:100EC00022E002A951F82400994903F0D4FE064615
:100ED00003F00CFF054608200090601CC2B22B46B0
:100EE0009AA19048FFF76DFE642001F0D8F9082020
:100EF0000090601CC2B20A2395A18A48FFF761FEE8
:100F0000642001F0CCF9641C322CDADBC82001F03B
:100F1000C6F904230022AFF2F8118248FFF777FEEA
:100F2000C82001F0BCF966B070BD10B501217D4844
:100F3000FFF7D7FD642001F0B2F908230022AFF2D9
:100F400034217848FFF763FE642001F0A8F90823F4
:100F50000222AFF244217348FFF759FE642001F0EA
:100F60009EF9082342F21072AFF258216D48FFF744
:100F70004EFE642001F093F9082342F21072AFF2A2
:100F800068216848FFF743FE642001F088F90823D0
:100F90000122AFF288216348FFF739FE642001F097
:100FA0007EF9082342F21072AFF290215D48FFF7FC
:100FB0002EFE642001F073F904230022AFF2A02179
:100FC0005848FFF724FE642001F069F910BD10B500
:100FD000044605205F49087001215248FFF781FD52
:100FE000642001F05CF908230022AFF2E0214D48B3
:100FF000FFF70DFE642001F052F908230222AFF240
:10100000F0214848FFF703FE642001F048F9082367
:101010004A4AAFF200314348FFF7F9FD642001F07E
:101020003EF90823454AAFF210313E48FFF7EFFD85
:10103000642001F034F93D4B002246F2FF013948AB
:10104000FFF740FC642001F02AF908230122AFF2E7
:1010500044313448FFF7DBFD642001F020F9012C16
:1010600007D10A203C49087001204870632088702D
:1010700008E0022C06D1142037490870022048707D
:101080003120887010BD2DE9F041044632480078C7
:101090004FF47A7191FBF0F6304603F01EFE0546E0
:1010A0002349204603F0E7FD0746294603F0E3FD08
:1010B0000446204603F01AFE054608232A46AFF2EE
:1010C000A4311848FFF7A3FD022001F0E8F804233B
:1010D0000022AFF2B4311348FFF799FDBDE8F0816B
:1010E00010B51E4B01224FF4B0510E48FFF7EAFB3A
:1010F00010BD10B5044680212046FFF7F2FCC82041
:10110000FFF7D6FB164B01224FF4C0512046FFF7E4
:10111000D9FBC820FFF7CCFB00231A464FF4D0516F
:1011200020461FE0A802002040420F00C02709000F
:101130000000364350520000804F0008809698000F
:1011400060AE0A00505400004D50000051500000A5
:10115000515400004C0000204D0000202000FF6092
:10116000FF010080FFF7AEFBC820FFF7A1FBFE4B9D
:1011700001224FF4D0512046FFF7A4FBC820FFF70F
:1011800097FBFA4B02224FF4D0512046FFF79AFB0F
:10119000C820FFF78DFB022300224FF4D0512046D8
:1011A000FFF790FBC820FFF783FB042302224FF4D4
:1011B000C0512046FFF786FBC820FFF779FB40F2BD
:1011C000FF1301224FF4C0512046FFF77BFBC820DC
:1011D000FFF76EFBE64B01224FF4A0512046FFF7CC
:1011E00071FBC820FFF764FB00231A464FF4B0518F
:1011F0002046FFF767FBC820FFF75AFBDD4B0122B3
:101200004FF4B0512046FFF75DFBC820FFF750FBBD
:10121000012300224FF4B0512046FFF753FBC820B2
:10122000FFF746FB042302224FF4A0512046FFF7AC
:1012300049FBC820FFF73CFB40F27F2301224FF41B
:10124000A0512046FFF73EFBC820FFF731FB0121EC
:101250002046FFF746FCC820FFF72AFB502000F08D
:10126000FAFF10BD30B58DB004460D462C2102A802
:1012700003F0F6FC00200123062207210090FFF76F
:10128000C7F8C82000F0E7FF7F2020602C2202A9C9
:1012900004F1180003F0CBFC2046FFF72AFF20469C
:1012A000FFF778FB0120B44908600220486403205E
:1012B000C1F888000DB030BD70B504460D46002160
:1012C0002173AE480068606061730421A173E57307
:1012D000290A2174290C6174290EA174211DA848C2
:1012E00001F006FE70BD70B504460D46102020606A
:1012F000002121730020606061730221A17301212C
:10130000E17300212174211D9D4801F0F1FD70BDA4
:1013100070B505460C46012C03D0032C01D0062CD9
:1013200027D10623002246F240012846FFF7CAFAD9
:10133000502000F090FF2346002246F2600128462C
:10134000FFF7C0FAC82000F086FF0723002246F20C
:1013500040012846FFF7B6FAC82000F07CFF0F23B3
:10136000002246F240012846FFF7ACFAC82000F000
:1013700072FF70BD2DE9F04104460D4616461F462A
:10138000DDF8188004F12C00216C81422AD0206401
:101390000021E1620623002246F240012046FFF7C9
:1013A00091FA502000F057FF0323002246F260011B
:1013B0002046FFF787FAC82000F04DFF07230022E0
:1013C00046F240012046FFF77DFAC82000F043FFB7
:1013D0000F23002246F240012046FFF773FAC8208F
:1013E00000F039FF206BB0420AD02663334600225A
:1013F00046F283012046FFF765FA282000F02BFF14
:10140000606BB8420AD067633B46002246F2840113
:101410002046FFF757FA282000F01DFFA06B40453B
:101420000BD0C4F838804346002246F2850120469E
:10143000FFF748FA282000F00EFFE06AA8420AD021
:10144000E5622B46002246F2FF012046FFF73AFAFA
:101450000A2000F000FF0F23002246F24001204640
:10146000FFF730FA502000F0F6FE502000F0F3FEB7
:10147000502000F0F0FE0F23002246F240012046EB
:10148000FFF720FA502000F0E6FEBDE8F0812DE9DC
:10149000F04F8FB004460F4616469846DDE9189A7D
:1014A0003422384902A803F0C2FB0025042301229C
:1014B000AFF270312046FFF7AAFBC82000F0EFFE24
:1014C000082001231A46AFF2803100902046FFF732
:1014D00078FBC82000F0E3FE08200D230222AFF2C3
:1014E000983100902046FFF76CFBC82000F0D7FE33
:1014F000082001230322AFF2B03100902046FFF70D
:1015000060FB00BF22E002A850F82500642190FB98
:10151000F1FB08200090681CC2B25B46AFF2D431E8
:101520002046FFF74EFBC82000F0B9FE082005EB6F
:1015300085030090681CC2B2AFF2EC312046FFF781
:1015400040FBC82000F0ABFE681CC5B20D2DDADBF5
:10155000C82000F0A4FE04F11800216C814239D0AB
:101560002064062300220FE0100041602000646028
:101570007F0200802000FF609801002050000020C2
:10158000006400401051000846F240012046FFF779
:1015900099F9C82000F05FFE0323002246F26001A3
:1015A0002046FFF78FF9C82000F055FE07230022E0
:1015B00046F240012046FFF785F9C82000F04BFEB7
:1015C0000F23002246F240012046FFF77BF9C82096
:1015D00000F041FEE069B8420AD0E7613B460022D4
:1015E00046F281012046FFF76DF9502000F033FEEE
:1015F000206A40450BD0C4F820804346002246F2C2
:1016000083012046FFF75EF9502000F024FE606A57
:1016100048450BD0C4F824904B46002246F2840182
:101620002046FFF74FF9502000F015FEA069B042A8
:101630000CD0B6204643A6613346002246F27A011A
:101640002046FFF73FF9502000F005FE502000F043
:1016500002FE5346002246F240012046FFF732F9CF
:10166000502000F0F8FD0F23002246F240012046F2
:10167000FFF728F9502000F0EEFD0F23002246F27C
:1016800040012046FFF71EF9502000F0E4FD08233A
:101690000022AFF674112046FFF7B9FA0FB0BDE88B
:1016A000F08F2DE9F04704460E4615461F46DDE94A
:1016B000088904F11800216C81422BD01430206479
:1016C0000021E1620623002246F240012046FFF796
:1016D000F9F8502000F0BFFD0123002246F260011E
:1016E0002046FFF7EFF8C82000F0B5FD07230022E1
:1016F00046F240012046FFF7E5F8C82000F0ABFDB8
:101700000F23002246F240012046FFF7DBF8C820F5
:1017100000F0A1FDE069B0420AD0E6613346002244
:1017200046F281012046FFF7CDF8502000F093FDEE
:10173000206AB8420AD027623B46002246F2830163
:101740002046FFF7BFF8502000F085FD606A404555
:101750000BD0C4F824804346002246F28401204680
:10176000FFF7B0F8502000F076FDA069A8420CD039
:10177000B6204543A5612B46002246F27A01204659
:10178000FFF7A0F8502000F066FD502000F063FD48
:101790004B46002246F240012046FFF793F85020C6
:1017A00000F059FD0F23002246F240012046FFF7CA
:1017B00089F8502000F04FFD0F23002246F240012F
:1017C0002046FFF77FF8502000F045FDBDE8F08788
:1017D00070B504460D4604F13C00216C81422AD0CC
:1017E00020640021E1630423002246F260012046C8
:1017F000FFF768F8C82000F02EFD0623002246F20D
:1018000040012046FFF75EF8C82000F024FD0723C2
:10181000002246F240012046FFF754F8C82000F0AD
:101820001AFD0F23002246F240012046FFF74AF836
:10183000C82000F010FDE06BA8420AD0E5632B46FB
:10184000002246F271012046FFF73CF8282000F004
:1018500002FDC82000F0FFFC70BD10B58CB004463E
:101860002C2101A803F0FCF9C82000F0F4FC0523AA
:10187000002246F240012046FFF724F8C82000F07D
:10188000EAFC0623002246F240012046FFF71AF840
:10189000C82000F0E0FC0723002246F24001204669
:1018A000FFF710F8C82000F0D6FC0F23002246F204
:1018B00040012046FFF706F8C82000F0CCFC2C229F
:1018C00001A904F1180003F0B2F90CB010BD00003A
:1018D00010B586B00446012144F2040001F012F96B
:1018E000F64801F06BFE4FF40070ADF814000320D1
:1018F0008DF8160018208DF8170005A9F04800F0A3
:1019000045FE4FF48060ADF8140004208DF81700F8
:1019100005A9EB4800F03AFE25208DF800000320D1
:101920008DF801008DF8020001208DF80300684653
:1019300000F063FD01940020ADF80800ADF80A0046
:10194000ADF80C00ADF810000C20ADF80E0001A9A8
:10195000DA4801F076FE012240F22551D74801F025
:1019600008FF0121D54801F0F8FE06B010BD10B502
:1019700086B004460121480401F0D1F80121042079
:1019800001F0C0F8CF4801F019FE0420ADF81400B2
:1019900003208DF8160018208DF8170005A9C848F7
:1019A00000F0F4FD0820ADF8140004208DF81700B5
:1019B00005A9C34800F0EAFD26208DF800000120AB
:1019C0008DF8010002208DF8020001208DF803003F
:1019D000684600F012FD01940020ADF80800ADF853
:1019E0000A00ADF80C00ADF810000C20ADF80E00A8
:1019F00001A9B44801F025FE012240F22551B14869
:101A000001F0B7FE0121AF4801F0A7FE06B010BDFE
:101A100010B504462146A94801F00CFF00BF402143
:101A2000A64801F075FF0028F9D010BD10B50024BC
:101A300040F22551A14801F081FF78B19F4801F0A3
:101A4000FDFEC4B2A0480078642807DA9E480178F9
:101A50000078401C9C4A10709C48445410BD70B5DE
:101A600005460E46002400BF0CE0295D954801F0B4
:101A7000E1FE00BF4021934801F04AFF0128F9D15F
:101A8000601CC4B2B442F0DB70BD10B50246002346
:101A90008D480078814201DD8B480178002305E004
:101AA0008A48C05C02F8010B581CC3B28B42F7DBBA
:101AB0000020854C2070084610BD7CB504460E46BB
:101AC0002078422809D16078472806D10120804932
:101AD000087000207F490870AEE02078532809D1B3
:101AE0006078542806D17C48FFF7B7FE002078497B
:101AF0000870A1E0207850280CD16078562809D1D0
:101B000049F64040754B1A46410000907248FFF775
:101B100031FC91E02078502805D16078502802D11E
:101B2000FFF75EF988E02078432826D18023002241
:101B300046F240016848FEF7C5FE642000F0AFFBA6
:101B400080216548FEF7CDFF642000F0A8FB03214B
:101B50006148FFF7DDFB642000F0A1FB43F698230A
:101B6000002246F2FF015C48FEF7ACFE01224FF472
:101B7000A0515948FEF7EAFE5EE02078512815D1C1
:101B8000574D012157A003F029F904215AA003F071
:101B900025F902215DA003F021F9042161A003F0E1
:101BA0001DF9294664A003F019F945E0207858286A
:101BB00042D16078312802D1FFF7B7F93CE0607874
:101BC000322802D1FFF70CF936E0607833280DD1C6
:101BD0007F204CF250310B464FF4B472CDE9001027
:101BE00042F210713C48FFF75CFD25E06078342834
:101BF00009D1FFF797F80A2053490870012048706F
:101C00006420887018E06078352809D1FFF78AF8D9
:101C100014204D49087002204870312088700BE074
:101C20006078362808D1FFF77DF8142046490870FF
:101C300003204870342088707CBD10B590B000241B
:101C400042480078012811D10020404908704048DE
:101C50000068C0433F49C1F894013C2101A8FFF747
:101C600014FF0446214601A8FFF727FF10B010BD5E
:101C70001548007800281CDD13480078364909789B
:101C8000884207D00020354908700F480078324953
:101C9000087011E031480078401C3049087008464F
:101CA00000781E2808DB00200870012027490870F2
:101CB00002E0002028490870704700000038014009
:101CC0000008014000440040600000204004002063
:101CD0000400002006000020A8020020905F010000
:101CE0000480FFFF63686172D7D6BDDACAFDCEAA51
:101CF0003A25640D0A000000696E74B5C4D7D6BDDC
:101D0000DACAFDCEAA3A25640D0A000073686F7224
:101D100074B5C4D7D6BDDACAFDCEAA3A25640D0A79
:101D2000000000006C6F6E67D7D6BDDACAFDCEAA80
:101D30003A25640D0A00000073686F7274207820E1
:101D40003A25640D0A0000004D0000200500002027
:101D50009401234200002342610000206200002021
:101D600000B587B001214FF4037000F0CBFE4FF4B3
:101D7000004000F02BFE0120ADF804000220ADF879
:101D800004002020ADF804004020ADF804008020BD
:101D9000ADF8040000208DF8070001A9354800F0D7
:101DA000F5FB0120ADF8040000208DF8070001A923
:101DB000314800F0EBFB314802F012FD00200290A8
:101DC0008DF80C008DF80D004FF460200490002079
:101DD000059001208DF8180002A9284802F027FD7F
:101DE0000121264802F04FFD244802F06EFD00BF9D
:101DF000224802F06FFD0028FAD1204802F074FD5D
:101E000000BF1E4802F075FD0028FAD107B000BDE2
:101E100010B50446002301222146184802F09FFD18
:101E20000121164802F06FFD00BF0221134802F0A5
:101E3000DBFE0028F9D0114802F0F8FD10BD2DE9B5
:101E4000F04707460C460025A846A946142400265C
:101E500008E03846FFF7DCFF05440A2000F0FBF9F4
:101E6000701CC6B2A642F4DB95FBF4F080B2BDE86C
:101E7000F087000000080140000C014000240140F0
:101E800010B586B004460121480400F048FE012147
:101E9000042000F037FED24801F090FB0420ADF89A
:101EA000140003208DF8160018208DF8170005A9DE
:101EB000CC4800F06BFB0820ADF8140004208DF82E
:101EC000170005A9C74800F061FB26208DF8000027
:101ED00001208DF8010004208DF8020001208DF80A
:101EE0000300684600F089FA01940020ADF808006C
:101EF000ADF80A00ADF80C00ADF810000C20ADF8FC
:101F00000E0001A9B64801F09CFB012240F22551C8
:101F1000B34801F02EFC0121B14801F01EFC06B0CF
:101F200010BD10B5044600BF4021AD4801F0F0FCE3
:101F30000028F9D0AA48001D048010BD70B50446E1
:101F40000D46002605E03146721CD6B2605CFFF7F4
:101F5000E8FFAE42F7DB70BD2DE9F04104464FF0DB
:101F6000000800260027B4259F48007800287CD070
:101F70004FF400719D4800F0B8FB9B48007800F0DA
:101F8000010090B19848007880F0010096490870EF
:101F9000152606279648016821608188A1808079EE
:101FA000A071A8193844C5B25EE08F48007800F0EF
:101FB000020090B18C48007880F002008A490870D5
:101FC000252606278B48016821608188A1808079B9
:101FD000A071A8193844C5B246E08348007800F0E3
:101FE000040090B18048007880F004007E490870B9
:101FF000352606278048016821608188A180807984
:10200000A071A8193844C5B22EE07748007800F0D6
:10201000080090B17448007880F008007249087098
:10202000452606277548016821608188A18080794E
:10203000A071A8193844C5B216E06B48007800F0CA
:10204000100088B16848007880F010006649087078
:10205000652608276A480168216041686160007A46
:102060002072A8193844C5B200E015E04FF000080E
:1020700007E014F808002844C5B208F1010000F098
:10208000FF08B845F5DB14F80800A84202D000208C
:10209000BDE8F0813046FBE70020F9E759480078B9
:1020A00000281CDD5748007857490978884207D036
:1020B000002056490870534800785349087011E0D1
:1020C00052480078401C51490870084600781E2884
:1020D00008DB0020087001204D49087002E0002054
:1020E00049490870704710B50246002345480078FA
:1020F000814201DD43480178002305E04548C05C8A
:1021000002F8010B581CC3B28B42F7DB00203D4C98
:102110002070084610BD70B504460D460BE014F85B
:10212000011B2F4801F086FB00BF40212C4801F025
:10213000EFFB0128F9D12800A5F10101CDB2EED1C4
:1021400070BD1CB50246002033A418CCCDE9003484
:102150001CBD10B58FB000242D480078012807D190
:1021600000202B4908703C216846FFF7BCFF04465D
:102170000FB010BD10B5002440F22551184801F0F1
:10218000DDFB18B3164801F059FBC4B21D480078B6
:10219000642807DA1B4801780078401C194A10703F
:1021A0001C484454174800780B2810D1194800786F
:1021B0001849497888420AD11648007918490870A8
:1021C00014484079487000200E49087006E00D4818
:1021D00000780B2802DD00200A49087010BD0000BD
:1021E000004400400008014063000020000C014052
:1021F000640000206B0000207200002079000020A5
:10220000A404002080000020820000208300002021
:1022100081000020AD040020C012361A17C400004F
:102220000700002010B56FF0040000F030F92E48D0
:1022300000682E49B0FBF1F02D490870084600787F
:1022400000EB4001C1EBC0104FF6FF7101EAC00086
:102250002849088010BD0146254A12784A434FF0AC
:10226000E0235A6100229A611A46126942F0010283
:102270001A6100BF4FF0E022106900F001021AB1AC
:1022800000F48032002AF5D04FF0E022126922F0EB
:1022900001024FF0E0231A6100229A617047014663
:1022A000144A12884A434FF0E0235A6100229A618F
:1022B0001A46126942F001021A6100BF4FF0E02293
:1022C000106900F001021AB100F48032002AF5D042
:1022D0004FF0E022126922F001024FF0E0231A6170
:1022E00000229A61704700001000002000127A005E
:1022F000860000208800002010B54FF4A06000F098
:1023000077F810BD014600BF704700BF2C4A128805
:1023100002F04002002AF9D0C2B2294B1B1D1A80DC
:10232000704710B586B00446012144F2040000F065
:10233000E9FB244801F042F94FF40070ADF81400B5
:1023400003208DF8160018208DF8170005A91E48E7
:1023500000F01CF94FF48060ADF8140004208DF8F3
:10236000170005A9184800F011F925208DF8000084
:1023700003208DF801008DF8020001208DF8030084
:10238000684600F03AF801940020ADF80800ADF876
:102390000A00ADF80C00ADF810000C20ADF80E00EE
:1023A00001A9084801F04DF9012240F225510548E4
:1023B00001F0DFF90121034801F0CFF906B010BDAB
:1023C00000440040003801400008014006488047B2
:1023D00006480047FEE7FEE7FEE7FEE7FEE7FEE70A
:1023E000FEE7FEE7FEE7FEE70F0300083101000805
:1023F00031490143314A1160704770B50021002313
:102400000F22C47804B32D4C246804F4E064C4F5AE
:10241000E064210AC1F10403CA40447804FA03F1DC
:102420008478144021430901254C0678A15504788D
:1024300004F01F050124AC4005786D11AD0005F1D5
:10244000E025C5F8004109E0047804F01F050124E7
:10245000AC401C4D0678761145F8264070BD1A4AEE
:102460000A400243154B1B1F1A60704739B1134ACB
:10247000121D12680243114B1B1D1A6006E00F4A21
:10248000121D126882430D4B1B1D1A6070470428F1
:1024900008D14FF0E021096941F004014FF0E0223A
:1024A000116107E04FF0E021096921F004014FF0CC
:1024B000E0221161704700000000FA050CED00E019
:1024C00000E400E080E100E080FFFF1F10B504465B
:1024D000CC48844208D10121042000F02DFB0021CA
:1024E000042000F029FB46E0C748844208D10121BE
:1024F000082000F021FB0021082000F01DFB3AE03D
:10250000C248844208D10121102000F015FB0021AF
:10251000102000F011FB2EE0BD48844208D10121BB
:10252000202000F009FB0021202000F005FB22E024
:10253000B848844208D10121402000F0FDFA002172
:10254000402000F0F9FA16E0B348844208D1012196
:10255000802000F0F1FA0021802000F0EDFA0AE07E
:10256000AE48844207D10121801500F0E5FA002130
:10257000A01500F0E1FA10BD10B50121084600F0E9
:10258000DBFA0021012000F0D7FA10BD2DE9F0415F
:10259000024600250026002000230024002791F891
:1025A00003C00CF00F0591F803C00CF0100CBCF147
:1025B000000F03D091F802C04CEA050591F800C065
:1025C000BCF1000F31D0146800202BE04FF0010C5B
:1025D0000CFA00F3B1F800C00CEA03069E4220D1C9
:1025E00083004FF00F0C0CFA03F7BC4305FA03FC11
:1025F0004CEA040491F803C0BCF1280F06D14FF057
:10260000010C0CFA00FCC2F814C00AE091F803C0F7
:10261000BCF1480F05D14FF0010C0CFA00FCC2F8D8
:1026200010C0401C0828D1D31460B1F800C0BCF120
:10263000FF0F34DD546800202EE000F1080C4FF04D
:10264000010808FA0CF3B1F800C00CEA03069E4238
:1026500021D183004FF00F0C0CFA03F7BC4305FAAD
:1026600003FC4CEA040491F803C0BCF1280F05D127
:1026700000F1080C08FA0CF8C2F8148091F803C0B5
:10268000BCF1480F07D100F1080C4FF0010808FA1F
:102690000CF8C2F81080401C0828CED35460BDE866
:1026A000F0814FF6FF710180022181700421C17019
:1026B00070470246002093680B400BB1012000E0F8
:1026C000002070470146886880B2704702460020AB
:1026D000D3680B400BB1012000E000207047014699
:1026E000C86880B2704701617047416170470AB1A4
:1026F000016100E041617047C16070474FF4803272
:102700000A438261816182618269826970470246FF
:102710000020434B18684FF68073184040EA0210BF
:1027200008433F4B186070473E49C8617047F0B599
:102730000A46002300240021002500F00046B6F1DF
:10274000004F02D1364EF16901E0354E7168C0F399
:10275000034583B200F44016B6F5401F08D121F0BE
:1027600070612F4E766826F070662D4F7E6012E005
:1027700000F48016B6F5801F06D1032606FA05F48C
:10278000A14341F0706106E0460D360103FA06F6FA
:10279000B14341F0706122B1460D360103FA06F6ED
:1027A000314300F00046B6F1004F02D11C4EF161FA
:1027B00001E01B4E7160F0BD30B500228B071C0F8D
:1027C0000F2303FA04F2164B08338C1053F824300D
:1027D0009343134C08348D1044F8253023468C1055
:1027E00053F824308C07240F00FA04F423430C4CD4
:1027F00008348D1044F8253030BD0A49DC310860BA
:102800007047000000080140000C0140001001402A
:102810000014014000180140001C0140002001404C
:102820000000014000002042DF48006840F0010045
:10283000DD49086008464068DC490840DA494860DC
:1028400008460068DA490840D74908600846006829
:1028500020F4802008600846406820F4FE004860AC
:102860004FF41F0088607047CF49096821F4803118
:10287000CD4A11601146096821F480211160B0F53C
:10288000803F03D0B0F5802F0ED106E0C64909681D
:1028900041F48031C44A116007E0C349096841F43A
:1028A000A021C14A116000E000BF00BF704710B511
:1028B00001460022002300204A11012A02D1BA4C0D
:1028C000236806E0022A02D1B74C236A01E0B64C25
:1028D000636A01F01F02012494401C400CB10120E6
:1028E00000E0002010BD38B5002000900024002535
:1028F00000BF3120FFF7DBFF05460098401C009029
:102900000098B0F5A06F01D0002DF2D03120FFF774
:10291000CEFF08B1012400E00024204638BD014666
:102920000020A14A106820F0F80040EAC1001060C1
:102930007047A04908607047024600209A4B5868CB
:1029400020F47C1042EA01031843974B586070470B
:1029500098490866704701460020934A506820F065
:1029600003000843506070478F48406800F00C0037
:102970007047014600208C4A506820F0F000084360
:102980005060704701460020874A506820F4E0609C
:1029900008435060704701460020834A506820F485
:1029A000605040EAC1005060704729B17E4A527AB7
:1029B00002437D4B5A7204E07B4A527A82437A4B3F
:1029C0005A7270477B49D831086070470146002031
:1029D000754A506820F44040084350607047002119
:1029E000714A20321170704A82F82010012802D0FA
:1029F00004280AD104E001216B4A2032117005E05D
:102A00000521694A2032117000E000BF00BF704705
:102A10006949086070476449096A0143624A116262
:102A20007047654944390860704730B5002100227D
:102A3000002400235C4D6D6805F00C0121B10429D0
:102A400005D0082923D105E05C4D056022E05B4DEF
:102A500005601FE0544D6D6805F47012524D6D68AD
:102A600005F48034022505EB92421CB9544D5543C0
:102A700005600BE04C4D6D6805F400351DB1504DFF
:102A80005543056002E04D4D5543056002E04B4D56
:102A9000056000BF00BF444D6D6805F0F0010909F5
:102AA000484D6B5C0568DD4045603F4D6D6805F441
:102AB000E061090A434D6B5C4568DD4085603A4D35
:102AC0006D6805F46051C90A3E4D6B5C4568DD4098
:102AD000C560354D6D6805F44041890B3A4D6B5C1E
:102AE000C568B5FBF3F5056130BD29B12E4A5269C1
:102AF00002432D4B5A6104E02B4A526982432A4B10
:102B00005A61704729B1284A92690243264B9A615B
:102B100004E0254A92698243234B9A61704729B1A8
:102B2000214AD2690243204BDA6104E01E4AD2698D
:102B300082431D4BDA61704729B11B4AD2680243B8
:102B4000194BDA6004E0184AD2688243164BDA6007
:102B5000704729B1144A12690243134B1A6104E009
:102B6000114A12698243104B1A6170471249403969
:102B7000086070470F49C86470470B49C8717047B7
:102B80000948406A40F08070074948627047014632
:102B90000020054A92680A400AB1012000E00020A6
:102BA0007047014988727047001002400000FFF82A
:102BB000FFFFF6FE000042428004424200127A000B
:102BC00000093D0092000020A200002010B504463C
:102BD000FE48844209D101214806FFF7BAFF0021CF
:102BE0004FF00070FFF7B5FF08E001218806FFF7FE
:102BF000B0FF00214FF08060FFF7ABFF10BD30B594
:102C0000024600200023146824F0020414601468B3
:102C100044F00104146000E05B1C546804F00104FB
:102C20001CB94FF6FF74A342F6D1546804F00104B6
:102C30000CB900206CE08C79012C04D1146844F0AC
:102C40008004146003E0146824F080041460CC79DC
:102C5000012C04D1146844F04004146003E01468AB
:102C600024F0400414600C7A012C04D1146844F060
:102C70002004146003E0146824F0200414604C7AEB
:102C8000012C04D1146844F01004146003E01468AB
:102C900024F0100414608C7A012C04D1146844F0E0
:102CA0000804146003E0146824F008041460CC7A6B
:102CB000012C04D1146844F00404146003E0146887
:102CC00024F0040414608C78A407CD7844EA0564E9
:102CD0000D7944EA05444D7944EA05540D886D1E8A
:102CE0002C43D461146824F001041460002300E034
:102CF0005B1C546804F001041CB14FF6FF74A3423E
:102D0000F6D1546804F001040CB1002000E0012069
:102D100030BD10B50021837A012202FA03F1AC4ADA
:102D2000126842F00102AA4B1A60A94A1C321268CA
:102D30008A43A74B1C331A60027BCAB9A44A0C32DF
:102D400012688A43A24B0C331A604288C38842EA55
:102D500003439F4A4032847A42F8343002888388A1
:102D600042EA03439A4A4032847A02EBC402536037
:102D7000027B012A19D1964A0C3212680A43944BFD
:102D80000C331A604288038842EA0343904A403277
:102D9000847A42F83430C288838842EA03438C4AFA
:102DA0004032847A02EBC4025360C27A3AB9884A4C
:102DB000121D12688A43864B1B1D1A6006E0844A66
:102DC000121D12680A43824B1B1D1A60028932B918
:102DD0007F4A143212688A437D4B14331A60028989
:102DE000012A06D17A4A143212680A43784B143306
:102DF0001A60427B012A06D1754A1C3212680A43C6
:102E0000734B1C331A60724A126822F00102704B35
:102E10001A6010BD00218171C1710172417281720D
:102E2000C1728170C17003210171022141710121C0
:102E3000018070476649096841F00101644A1160E8
:102E40001146096843F60E729143614A11601146BA
:102E5000096841EA002111601146096821F0010169
:102E60001160704721B1026842F48032026003E0D1
:102E7000026822F4803202607047E1B1026842F0D9
:102E8000800202604FF4C272125842F480734FF411
:102E9000C27213504FF4CA72125842F480734FF446
:102EA000CA7213504FF4D272125842F480734FF426
:102EB000D27213501BE0026822F0800202604FF4CD
:102EC000C272125822F480734FF4C27213504FF43E
:102ED000CA72125822F480734FF4CA7213504FF41E
:102EE000D272125822F480734FF4D272135070478A
:102EF00010B502460020936803F08063B3F1806F41
:102F000000D110E0936803F00063B3F1006F01D1CA
:102F1000012008E0936803F08053B3F1805F01D192
:102F2000022000E00420042879D002F5C07303EBEE
:102F300000131B6803F0010402F5C07303EB0013D8
:102F40001C600B7A7BB94B7A0C8843EA445302F538
:102F5000C07404EB00142468234302F5C07404EB2E
:102F60000014236010E00B7A4C6843EAC4034C7AE7
:102F7000234302F5C07404EB00142468234302F5D4
:102F8000C07404EB001423608B7A03F00F038B7280
:102F900002F5C07303EB00135B6823F00F0402F526
:102FA000C07303EB00135C6002F5C07303EB001306
:102FB0005B688C7A234302F5C07404EB00146360F1
:102FC0008B7B1C064B7B44EA034403E00064004017
:102FD000006600400B7B44EA0323CC7A234302F5CE
:102FE000C07404EB0014A3608B7C1C064B7C44EA89
:102FF00003440B7C44EA0323CC7B234302F5C074D7
:1030000004EB0014E36002F5C07303EB00131B68CC
:1030100043F0010402F5C07303EB00131C6010BD04
:1030200010B50246002321B1012907D002290FD192
:1030300009E09068F94C00EA04030BE09068F84C52
:1030400000EA040306E09068F64C00EA040301E09D
:10305000002300BF00BFF44C181BA34216D007DCAE
:1030600083B16FF08060184470B1022818D111E06C
:10307000B0F5007F10D0ED4C204448B1B0F5003FD2
:103080000ED10BE002230DE000230BE0002309E04A
:10309000002307E0012305E0012303E0012301E011
:1030A000002300BF00BFD8B210BD21B1012907D055
:1030B00002290FD109E0826842F0800282600AE0B2
:1030C000826842F40042826005E0826842F40002B5
:1030D000826000E000BF00BF704710B500F5D873F4
:1030E00003EB01131B6803F004031372137A53B943
:1030F00000F5D87303EB01131B6840F2FF7404EA78
:103100005353136009E000F5D87303EB01131B68F8
:103110006FF0604404EAD303536000F5D87303EB07
:1031200001131B6803F00203537200F5D87303EB1D
:1031300001135B6803F00F03937200F5D87303EB80
:1031400001135B681B0AD37400F5D87303EB0113FA
:103150009B68D37200F5D87303EB01139B681C0ABC
:10316000147300F5D87303EB01139B681C0C5473A4
:1031700000F5D87303EB01139B681B0E937300F5E6
:10318000D87303EB0113DB68D37300F5D87303EB3B
:103190000113DB681C0A147400F5D87303EB0113E8
:1031A000DB681C0C547400F5D87303EB0113DB6867
:1031B0001B0E937421B9C36843F02003C36003E07E
:1031C000036943F02003036110BD21B9C26842F0D6
:1031D0002002C26003E0026942F0200202617047EF
:1031E0000246002019B9D36803F0030006E0012964
:1031F00003D1136903F0030000E00020704710B50D
:1032000002460B4600204FF6FF71BBB9146824F04C
:10321000020444F00104146000E0491E546804F004
:103220000304012C01D00029F7D1546804F00304F1
:10323000012C01D0002032E0012030E0012B13D11D
:10324000146824F00304146000E0491E546804F07C
:1032500003040CB10029F8D1546804F003040CB144
:1032600000201CE001201AE0022B17D1146824F082
:10327000010444F00204146000E0491E546804F0A4
:103280000304022C01D00029F7D1546804F0030490
:10329000022C01D0002002E0012000E0002010BD3F
:1032A000014600200A6822F0010242F002020A6090
:1032B0004A6802F00302022A00D101207047014649
:1032C0004FF6FF7200200B6823F002030B6000E052
:1032D000521E4B6803F00203022B01D1002AF7D1E2
:1032E0004B6803F00203022B00D001207047014617
:1032F00000208A6902F070007047014600208A6948
:10330000100E7047014600208A69C2F307407047DB
:103310001AB143690B43436102E043698B43436144
:10332000704710B50246002001F4700343B1936961
:10333000C1F3130423400BB101202DE000202BE04A
:1033400001F0807343B15368C1F3130423400BB100
:10335000012021E000201FE001F0006343B19368E9
:10336000C1F3130423400BB1012015E0002013E04A
:1033700001F0007343B1D368C1F3130423400BB1D0
:10338000012009E0002007E01369C1F31304234082
:103390000BB1012000E0002010BD0022244B994217
:1033A00002D10023836111E0C1F3130201F0007325
:1033B0000BB1C2600AE001F080630BB1026105E06D
:1033C00001F000630BB1826000E04260704702468A
:1033D000002002EA01030BB1012000E00020704749
:1033E00070B504460D46002660692840002872D05A
:1033F000B5F5807F69D01DDC082D42D006DC012D9B
:103400002DD0022D31D0042D7FD134E0102D3ED0AF
:10341000202D42D0402D78D145E00000030000046B
:103420000003000800000310000100080001FFF77E
:103430007000F030B5F5004F61D009DCB5F5007FC4
:103440004AD0B5F5806F4DD0B5F5006F5DD150E035
:10345000B5F5803F2DD0B5F5003F56D12FE0A068DF
:103460005549FFF7B4FF064651E0E0680321FFF736
:10347000AEFF06464BE0E0680821FFF7A8FF0646CE
:1034800045E0E0681021FFF7A2FF06463FE0206913
:103490000321FFF79CFF064639E020690821FFF76A
:1034A00096FF064633E020691021FFF790FF06469D
:1034B0002DE060680821FFF78AFF064627E0606874
:1034C0001021FFF784FF064621E0A0690121FFF7E4
:1034D0007EFF06461BE01BE0A0690221FFF777FF95
:1034E000064614E0A0690421FFF771FF06460EE0CE
:1034F0000BE0A0697021FFF76AFF064607E06068ED
:103500000421FFF764FF064601E0002600BF00E04B
:103510000026304670BDB1F5007F3AD00FDC20297F
:1035200028D006DC01291CD004291DD0082940D14F
:103530001DE0402921D0B1F5807F3AD126E0B1F5D8
:10354000004F31D006DCB1F5806F25D0B1F5006FAA
:103550002FD124E0B1F5803F12D0B1F5003F28D142
:1035600011E0154A826025E00822C26022E01022A4
:10357000C2601FE0082202611CE01022026119E013
:103580000822426016E01022426013E004224260EA
:1035900010E0042242600DE0042242600AE00022B2
:1035A00082610422426005E00022826104224260BE
:1035B00000E000BF00BF70470101010010B50446E4
:1035C000FB48844209D101218803FFF7B5FA0021A5
:1035D0004FF48040FFF7B0FA32E0F648844209D158
:1035E00001214804FFF7B5FA00214FF40030FFF73E
:1035F000B0FA25E0F048844209D101218804FFF7A0
:10360000A8FA00214FF48020FFF7A3FA18E0EB4856
:10361000844209D10121C804FFF79BFA00214FF42D
:103620000020FFF796FA0BE0E548844208D101211B
:103630000805FFF78EFA00214FF48010FFF789FA92
:1036400010BD2DE9F04786B005460E460024A2467F
:1036500000BFA1460027B08900B100BF2F462C8AC9
:103660004CF6FF700440F08804432C82AC894EF67F
:10367000F3100440B088318908437189084304433A
:10368000AC81AC8A4FF6FF400440B0890443AC8261
:1036900001A8FFF7CAF9C648874202D1DDF810A099
:1036A00001E0DDF80CA0A88900F4004040B10AEB6D
:1036B000CA0000EB0A1031684900B0FBF1F807E0DE
:1036C0000AEBCA0000EB0A1031688900B0FBF1F880
:1036D0006420B8FBF0F004012009642101FB10898B
:1036E000A88900F4004040B1322000EBC900B0FBD3
:1036F000F1F000F00700044308E0322000EB09106D
:103700006421B0FBF1F000F00F0004432C8106B0FF
:10371000BDE8F0874FF41651016000218180C1801F
:1037200001810C21418100218181704710B5024641
:103730000020108A4FF2FF0318400B884C88234367
:103740008C882343CC8823431843108210BD00216A
:10375000018041808180C180704721B1828942F41B
:103760000052828104E082894DF6FF731A40828103
:103770007047F0B50346002400260025002040F6DF
:103780006A17B94200D100BF1846C1F3421401F0D4
:103790001F06012707FA06F5012C01D10C3004E0C1
:1037A000022C01D1103000E014301AB107682F4309
:1037B000076002E00768AF430760F0BD1AB1838A73
:1037C0000B43838202E0838A8B4383827047028AA1
:1037D0004FF6F0731A400282028A0A43028270474F
:1037E00082894FF2FF731A40828182890A43828163
:1037F000704721B1828942F00202828104E082890D
:103800004FF6FD731A4082817047028A4FF6DF73CC
:103810001A400282028A0A430282704721B1028A58
:1038200042F48042028204E0028A4BF6FF731A409F
:1038300002827047C1F3080282807047014688887F
:10384000C0F308007047818941F001018181704710
:10385000028BD2B20283028B42EA012202837047BA
:10386000028B02F47F420283028B0A430283704779
:1038700021B1828A42F02002828204E0828A4FF6DD
:10388000DF731A408282704721B1828A42F01002AF
:10389000828204E0828A4FF6EF731A408282704778
:1038A00021B1828A42F00802828204E0828A4FF6C5
:1038B000F7731A408282704721B1828942F4004234
:1038C000828103E08289C2F30E028281704721B1B6
:1038D000828A42F40062828204E0828A4FF2FF739D
:1038E0001A4082827047828A4FF6FB731A408282A6
:1038F000828A0A438282704721B1828A42F00202A0
:10390000828204E0828A4FF6FD731A4082827047F9
:1039100002460020B1F5007F00D100BF13880B40A4
:103920000BB1012000E00020704701F40072B2F5F5
:10393000007F00D100BFCA430280704770B50246C5
:10394000002400230025002040F66A16B14200D171
:1039500000BFC1F3421501F01F03012606FA03F36D
:10396000012D02D19689334006E0022D02D1168A3C
:10397000334001E0968A33400C12012606FA04F423
:103980001688344013B10CB1012000E0002070BD56
:1039900010B50022002340F66A14A14200D100BFF6
:1039A0000A1201249440A3B2DC43048010BD00003D
:1039B000003801400044004000480040004C0040F6
:1039C0000050004010B50446FE48844208D1012151
:1039D000C014FFF7B1F80021E014FFF7ADF8C4E020
:1039E000B4F1804F08D101210846FFF7B2F8002159
:1039F0000120FFF7AEF8B8E0F348844208D1012176
:103A00000220FFF7A6F800210220FFF7A2F8ACE0A1
:103A1000EE48844208D101210420FFF79AF80021E2
:103A20000420FFF796F8A0E0E948844208D101217C
:103A30000820FFF78EF800210820FFF78AF894E0AD
:103A4000E448844208D101211020FFF782F80021C8
:103A50001020FFF77EF888E0DF48844208D101217A
:103A60002020FFF776F800212020FFF772F87CE095
:103A7000DA48844208D101214014FFF75DF80021A3
:103A80006014FFF759F870E0D548844209D101214C
:103A9000C804FFF751F800214FF40020FFF74CF85D
:103AA00063E0D048844209D101210805FFF744F8BA
:103AB00000214FF48010FFF73FF856E0CA488442D7
:103AC00009D101214805FFF737F800214FF4001014
:103AD000FFF732F849E0C548844208D1012140206F
:103AE000FFF737F800214020FFF733F83DE0C048EA
:103AF000844208D101218020FFF72BF8002180208B
:103B0000FFF727F831E0BB48844208D10121801536
:103B1000FFF71FF80021A015FFF71BF825E0B648B6
:103B2000844209D101210804FFF706F800214FF46F
:103B30008030FFF701F818E0B048844209D1012134
:103B40004804FEF7F9FF00214FF40030FEF7F4FFC0
:103B50000BE0AB48844208D101218804FEF7ECFF5A
:103B600000214FF48020FEF7E7FF10BD00220288FD
:103B7000944B98420ED0994B98420BD0B0F1804FA5
:103B800008D0914B984205D0904B984202D0904B70
:103B9000984204D14FF68F731A404B881A438D4BCD
:103BA000984207D08C4B984204D04FF6FF431A40FE
:103BB000CB881A4302808B8883850B880385814BD1
:103BC00098420BD0854B984208D08B4B984205D039
:103BD0008A4B984202D08A4B984201D10B7A0386D5
:103BE00001238382704770B5002400220023058CD6
:103BF0004FF6FE7635400584028C8388048B4FF6A1
:103C00008F752C40B51E2C400D882C43751E2A4004
:103C10000D892A434D882A436A4DA8420BD06F4D27
:103C2000A84208D0744DA84205D0744DA84202D0D5
:103C3000734DA84213D14FF6F7752A404D892A4398
:103C40004FF6FB752A408D882A434FF6FF652B40BF
:103C50004FF6FF552B408D892B43CD892B43838015
:103C60000483CD888586028470BD70B5002400224F
:103C70000023058C4FF6EF7635400584028C83884F
:103C8000048B48F6FF752C404FF6FF452C400D88FD
:103C90004FF6FF7606EA05252C434FF6DF752A40DE
:103CA0000D8906EA05152A434D8806EA05152A43BB
:103CB000444DA84202D0494DA8421DD14FF67F7510
:103CC0002A404D894FF6FF7606EA05152A434FF63E
:103CD000BF752A408D8806EA05152A434FF6FF3541
:103CE0002B404FF2FF752B408D8906EA85052B434B
:103CF000CD8906EA85052B4383800483CD8805871B
:103D0000028470BD70B5002400220023058C4FF69C
:103D1000FF6635400584028C8388848B4FF68F754F
:103D20002C404FF6FC752C400D882C434FF6FF5568
:103D30002A400D894FF6FF7606EA05252A434D886D
:103D400006EA05252A431F4DA84202D0234DA8426A
:103D50001DD14FF2FF752A404D894FF6FF7606EAD6
:103D600005252A434FF6FF352A408D8806EA0525AA
:103D70002A434EF6FF752B404DF6FF752B408D897B
:103D800006EA05152B43CD8906EA05152B438380EA
:103D90008483CD888587028470BD70B5002200239E
:103DA0000024058C4EF6FF7635400584038C84880C
:103DB000828B48F6FF752A404FF6FF452A400D8852
:103DC00020E00000002C01400004004000080040FA
:103DD000000C00400010004000140040003401407E
:103DE000004C0140005001400054014000180040C8
:103DF000001C004000200040004001400044014001
:103E0000004801404FF6FF7606EA05252A434DF6A5
:103E1000FF752B400D8906EA05352B434D8806EAD0
:103E200005352B43FA4DA84202D0FA4DA84208D1DD
:103E30004BF6FF752C408D894FF6FF7606EA851507
:103E40002C4384808283CD88A0F84050038470BDC9
:103E5000828B4FF2FF331A408283828B4FF6FF73BF
:103E600003EA01231A4382837047F0B50C461546D6
:103E7000002200210026078C4EF6FF7C07EA0C0783
:103E80000784828B018C4FF6FF7707EA043640F6F1
:103E9000FF473A404FF6FF7707EA05273A434FF6C8
:103EA000FF7707EA03373A43D94FB8420ED0D94FCC
:103EB000B8420BD0B0F1804F08D0D74FB84205D0F0
:103EC000D64FB84202D0D64FB84206D14DF6FF7752
:103ED000394046F48057394305E047F6FF573940EB
:103EE00044F48057394382830184F0BD828B4FF6BE
:103EF000F3731A408283828B0A4382837047F0B542
:103F00000C461546002200210026078C4FF6FF6C58
:103F100007EA0C070784828B018C4FF6FF7707EACC
:103F200004264FF60C773A404FF6FF7707EA03175F
:103F30002F433A43B64FB8420ED0B64FB8420BD0DB
:103F4000B0F1804F08D0B44FB84205D0B34FB8425B
:103F500002D0B34FB84206D14FF6FF57394046F46E
:103F60008077394305E04FF2FF57394044F48077BA
:103F7000394382830184F0BD028B4FF2FF331A4034
:103F80000283028B4FF6FF7303EA01231A43028375
:103F90007047F0B50C461546002200210026078C1C
:103FA0004FF6EF7C07EA0C070784028B018C4FF673
:103FB000FF7707EA041640F6FF473A404FF6FF77CF
:103FC00007EA03373A434FF6FF7707EA05273A43F4
:103FD0008F4FB8420ED08F4FB8420BD0B0F1804F08
:103FE00008D08D4FB84205D08C4FB84202D08C4FCC
:103FF000B84206D14FF6DF77394046F01007394313
:1040000005E04FF65F77394044F0100739430283EB
:104010000184F0BD028B4FF6F3731A400283028BCA
:104020000A4302837047F0B50C4615460022002172
:10403000068C4FF6FE773E400684028B018C4FF6CD
:104040000C7632407E1C06EA03162E433243704E35
:10405000B0420ED06F4EB0420BD0B0F1804F08D0BE
:104060006D4EB04205D06D4EB04202D06C4EB042A3
:1040700006D14FF6FD76314044F00106314305E0AC
:104080004FF6F576314044F0010631430283018456
:10409000F0BD70B505460C465D4885420ED05D48C2
:1040A00085420BD0B5F1804F08D05B48854205D0E2
:1040B0005A48854202D05A48854200D100E000BFEC
:1040C000208850B92389A28861882846FFF7ABFF72
:1040D000E1882846FFF79EFF25E0208804280AD1C2
:1040E0002389A28861882846FFF753FFE188284684
:1040F000FFF742FF17E0208808280AD12389A28809
:1041000061882846FFF7FBFEE1882846FFF7EEFEB0
:1041100009E02389A28861882846FFF7A6FEE18886
:104120002846FFF795FE70BD2DE9F04105460C4687
:1041300000260127608808B9022600E00026A08832
:10414000012801D1022700E001272088A0B9238996
:10415000A28861882846FFF766FFE1882846FFF7B6
:1041600059FF23893A4631462846FFF712FFE18876
:104170002846FFF701FF13E02389A28861882846BB
:10418000FFF707FFE1882846FFF7F6FE23893A4646
:1041900031462846FFF747FFE1882846FFF73AFFF8
:1041A000BDE8F0810A884B881A438B881A43CB8874
:1041B0001A430B891A434B891A438B891A43A0F877
:1041C000442070474FF6FF71818000210180C1803B
:1041D0004180017270470021018041808180C1804F
:1041E000018141818181C18170470021018041802D
:1041F000012181800021C18001817047002101805F
:1042000041808180C18001814181818170470000AE
:10421000002C014000340140000400400008004030
:10422000000C004021B1028842F00102028004E04B
:1042300002884FF6FE731A400280704731B1B0F821
:10424000442042F40042A0F8442005E0B0F84420A5
:10425000C2F30E02A0F8442070471AB183890B43C1
:10426000838102E083898B43838170478182704719
:1042700041EA0203A0F8483070471AB183890B4322
:10428000838102E083898B438381704701894FF6E4
:10429000F8721140018170470A46002101894FF6EA
:1042A0008F73194011430181704730B504460D46A4
:1042B00029462046FFF7F0FF208940F007002081C3
:1042C00030BD2DE9F04104460D4616461F46602DCF
:1042D00006D13B46012231462046FFF75AFE05E053
:1042E0003B46012231462046FFF79DFE29462046E7
:1042F000FFF7D2FF208940F007002081BDE8F08160
:1043000030B50C4600210189C9B24FF6FF7505EAA8
:104310000325154325432943018130BD2DE9F04193
:1043200005460E4617469846002443463A4631460F
:104330002846FFF7E5FF2C894FF6F870044044F05B
:1043400007044FF68F70044044F070042C81BDE8E0
:10435000F081F0B504460D4616461F463B463246F0
:1043600029462046FFF7CCFF208940F48040208179
:10437000F0BD0185828270470A46002101884FF610
:104380008F731940114301807047F0B50C461546F4
:104390001E460021002200230189028B038C4FF668
:1043A000F877394021434FF6FC473A4040F2011775
:1043B0003A434FF6DD773B404FF6FF7707EA0617A3
:1043C0002F433B43018102830384F0BD0A46002151
:1043D000018B4FF68F7319401143018370470A46D2
:1043E0000021018B48F6FF7319404FF6FF7303EA73
:1043F00002231943018370470A460021818B4FF63F
:104400008F7319401143818370470A460021818BC5
:1044100048F6FF7319404FF6FF7303EA022319436E
:104420008183704721B1028842F08002028004E05B
:1044300002884FF67F731A400280704721B182884C
:1044400042F00402828004E082884FF6FB731A4037
:104450008280704721B1828842F00802828004E0A5
:1044600082884FF6F7731A408280704721B18288A4
:1044700042F00102828004E082884FF6FE731A4007
:10448000828070470A460021018B4FF6F77319406E
:104490001143018370470A460021018B4FF2FF73DD
:1044A00019404FF6FF7303EA022319430183704753
:1044B0000A460021818B4FF6F7731940114381831F
:1044C00070470A460021818B4FF2FF7319404FF667
:1044D000FF7303EA02231943818370470A460021D0
:1044E000018B4FF6FB7319401143018370470A4655
:1044F0000021018B4FF6FF3319404FF6FF7303EA9B
:1045000002231943018370470A460021818B4FF62D
:10451000FB7319401143818370470A460021818B48
:104520004FF6FF3319404FF6FF7303EA0223194396
:10453000818370470A460021018B4FF67F73194033
:104540001143018370470A460021018BC1F30E011C
:104550004FF6FF7303EA02231943018370470A46AB
:104560000021818B4FF67F7319401143818370477F
:104570000A460021818BC1F30E014FF6FF7303EA57
:1045800002231943818370470A460021018C4FF6AC
:10459000FD7319401143018470470A460021018CC4
:1045A0004FF6F77319401143018470470A46002102
:1045B000018C4FF6DF7319404FF6FF7303EA0213C5
:1045C0001943018470470A460021018C4FF67F731E
:1045D00019404FF6FF7303EA021319430184704731
:1045E0000A460021018C4FF6FF5319404FF6FF7326
:1045F00003EA02231943018470470A460021018C13
:104600004FF2FF7319404FF6FF7303EA0223194379
:10461000018470470A460021018C4DF6FF73194052
:104620004FF6FF7303EA023319430184704730B534
:10463000002301248C40A3B2048C9C430484048C8A
:1046400002FA01F5ADB22C43048430BD30B500232D
:1046500004248C40A3B2048C9C430484048C02FA8E
:1046600001F5ADB22C43048430BD70B50346002083
:1046700000241846183001258D40ACB21D8CA5438E
:104680001D8409B1082909D100EB6100056825F0F6
:10469000700505600568154305600EE00D1FC5F344
:1046A0004E052844056825F4E045056005684FF689
:1046B000FF7606EA02263543056070BD21B1028807
:1046C00042F00202028004E002884FF6FD731A40B5
:1046D0000280704721B1028842F00402028004E0A7
:1046E00002884FF6FB731A400280704721B182881E
:1046F00042F08002828004E082884FF67F731A4085
:104700008280704702884FF6F7731A400280028851
:104710000A430280704782884FF68F731A40828066
:1047200082880A438280704702894FF6F8731A40E4
:10473000028102890A430281704702894FF67F7322
:104740001A40028102890A430281704781847047BE
:1047500081857047818670470187704781877047E0
:10476000A0F84010704702884FF6FF431A400280BD
:1047700002880A43028070470146888E70470146CE
:10478000088F70470146888F70470146B1F8400096
:1047900070470146888C70470146088D7047024675
:1047A0000020138A0B400BB1012000E0002070476D
:1047B000CA430282704730B502460020002300241D
:1047C000158A05EA0103958905EA010413B10CB1C4
:1047D000012000E0002030BDCA4302827047000083
:1047E00010B50446FA48844208D101214015FEF76D
:1047F000A3F900216015FEF79FF917E0F548844200
:1048000008D101210015FEF797F900212015FEF7C8
:1048100093F90BE0F048844208D10121C803FEF768
:104820008BF900214FF40040FEF786F910BD30B53A
:104830000246002000235068E84C20400D790C68A7
:1048400044EA0524204350609068E54C2040D1E9BB
:1048500002542C434D7944EA450420439060D06AC9
:1048600020F470000C7C641EE4B2234340EA035041
:10487000D06230BD00210160017141718160C16071
:1048800001210174704721B1826842F00102826007
:1048900003E0826822F001028260704721B18268E1
:1048A00042F48072826003E0826822F48072826047
:1048B000704710B50023CBB21AB144681C43446062
:1048C00002E044689C43446010BD816841F00801E7
:1048D00081607047014600208A6802F008020AB130
:1048E000012000E000207047816841F004018160F0
:1048F0007047014600208A6802F004020AB10120D4
:1049000000E00020704721B1826842F4A00282607A
:1049100003E0826822F4A002826070470146002012
:104920008A6802F480020AB1012000E0002070478A
:1049300010B50A4600210023416821F46041531E4E
:1049400041EA4331416010BD21B1426842F4006246
:10495000426003E0426822F4006242607047F0B5B2
:1049600004460D4600200021092D11DDE068A5F167
:104970000A0606EB4607072606FA07F18843A5F163
:104980000A0606EB460603FA06F10843E0600CE06F
:10499000206905EB4507072606FA07F1884305EB72
:1049A000450603FA06F108432061072A0FDA606B17
:1049B000561E06EB86071F2606FA07F18843561E89
:1049C00006EB860605FA06F10843606322E00D2A2D
:1049D0000FDA206BD61F06EB86071F2606FA07F1B3
:1049E0008843D61F06EB860605FA06F108432063C6
:1049F00010E0E06AA2F10D0606EB86071F2606FA14
:104A000007F18843A2F10D0606EB860605FA06F1CA
:104A10000843E062F0BD21B1826842F480128260F6
:104A200003E0826822F48012826070470146C86CFD
:104A300080B2704766484C300068704721B14268C8
:104A400042F48062426003E0426822F48062426085
:104A5000704721B1426842F48052426003E04268EC
:104A600022F48052426070470A460021816821F496
:104A7000E04111438160704721B1826842F40042F5
:104A8000826003E0826822F400428260704721B1B4
:104A9000826842F40212826003E0826822F4021209
:104AA00082607047014600208A6802F400120AB151
:104AB000012000E000207047F0B5044615460020B4
:104AC00000220026092911DDE068A1F10A0707EBA1
:104AD000470C072707FA0CF29043A1F10A0707EBEE
:104AE000470703FA07F21043E0600CE0206901EB8E
:104AF000410C072707FA0CF2904301EB410703FA38
:104B000007F210432061A06BC0F30156EF1C06F1C1
:104B1000010CA7EB0C0707EB870C1F2707FA0CF219
:104B20009043EF1C06F1010CA7EB0C0707EB87077E
:104B300001FA07F21043A063F0BD10B50A46002148
:104B40000023816B21F44011531E41EA035181631C
:104B500010BD08B5002300930090009B0B44009308
:104B6000009B1A6008BD08B5024600200090009224
:104B700001F12800009B184400900098006880B262
:104B800008BD0A4600214168164B19401143416097
:104B900070474162826270470A460021416821F0F5
:104BA0001F0111434160704740B10949083109684C
:104BB00041F40001064A0832116007E00449083157
:104BC000096821F40001024A0832116070470000B0
:104BD0000024014000280140003C0140FFFEF0FF9E
:104BE000FDF7F1FFFFFD3FFF0246002013680B4079
:104BF0000BB1012000E000207047CA4302607047FB
:104C000070B502460020002300240B125568CEB276
:104C100005EA060415681D4015B10CB1012000E03D
:104C2000002070BD00220A12D3430360704740EA9F
:104C300001039B0703D009E008C9121F08C0042A1A
:104C4000FAD203E011F8013B00F8013B521EF9D201
:104C50007047D2B201E000F8012B491EFBD2704729
:104C60000022F6E710B513460A4604461946FFF738
:104C7000F0FF204610BD80EA010210B502F00043AB
:104C8000400022D04A001FD0010E01EB1261C0F398
:104C90005600C2F3560240F4000042F40002A0FBAA
:104CA000022000047F39140400D0401C50EA124056
:104CB00001D44000491EC2B20C0604EBD010401CC7
:104CC0004008802A02D003E0002010BD20F001003F
:104CD000002900DA0020184310BDC10F80EAE070FF
:104CE0000844CA079623002100F038B800F00042BB
:104CF00020F00040C10DC0F3160040F400007F29F1
:104D000001DA00207047962903DCC1F19601C84002
:104D100001E096398840002AF4D04042704730B50F
:104D20000B46014600202022012409E021FA02F569
:104D30009D4205D303FA02F5491B04FA02F5284403
:104D4000151EA2F10102F1DC30BD0029A8BF704799
:104D5000401C490008BF20F00100704710B4B0FAB1
:104D600080FC00FA0CF050EA010404BF10BC70474C
:104D700049B1CCF1200421FA04F411FA0CF118BF66
:104D8000012121430843A3EB0C01CB1D4FEA006135
:104D90004FEA102042BF002010BC704700EBC35008
:104DA00010440029A4BF10BC7047401C490008BF34
:104DB00020F0010010BC7047064C074D06E0E0688B
:104DC00040F0010394E8070098471034AC42F6D352
:104DD000FBF7B2F944510008645100080FB4054BC9
:104DE00010B503A9044A029800F018F810BC5DF849
:104DF00014FB00000B2300088C00002002E008C810
:104E0000121F08C1002AFAD170477047002001E044
:104E100001C1121F002AFBD1704700002DE9FF4F8E
:104E200089B09B460446002506E025280BD05A464B
:104E30000B999047641C6D1C20780028F5D10DB0AB
:104E40002846BDE8F08F0027B8460122474900E018
:104E5000074314F8013F203B02FA03F00842F7D160
:104E600020782E2819D114F8010F47F004072A28BA
:104E70000ED06FF02F022078A0F1300109290CD854
:104E800008EB880102EB410100EB0108641CF2E72A
:104E90000A98641C50F8048B0A9020780028CED021
:104EA000642808D0692806D075281ED05A460B9968
:104EB00090476D1C58E00A994FF00A0901C90A9100
:104EC000002802DA40422D2102E0390504D52B21C9
:104ED0008DF82010012103E0F90704D02021F7E725
:104EE0008A4608AE0DE00021FAE70A994FF00A0958
:104EF00001C90A91F7E74946FFF711FF303106F87B
:104F0000011D0028F7D1ADEB060000F1200978075C
:104F100001D44FF00108C84502DDA8EB090000E00C
:104F200000208046002706E008A85A46C05D0B997D
:104F300090476D1C7F1C5745F6DB04E030205A4635
:104F40000B9990476D1CB8F10001A8F10108F5DC40
:104F500005E016F8010B5A460B9990476D1CB9F104
:104F60000001A9F10109F4DC641C65E709280100CE
:104F7000010200080000000801000000010200001A
:104F800000000000151D7140992A7040FE436E40DC
:104F90008B6C6B4087A76740DBF962402C655D40F6
:104FA000AAF1564040A44F401F854740789C3E40A0
:104FB0001FF4344046942A4066881F4051DA13405B
:104FC000C8980740F697F53F9A08DB3FB29DBF3F70
:104FD0002F6EA33FD49A863FFA7E523F4DF3163F81
:104FE000DC9DB53EB37BF23DB37BF2BDDC9DB5BE2F
:104FF0004DF316BFFA7E52BFD49A86BF2F6EA3BF61
:10500000B29DBFBF9A08DBBFF697F5BFC89807C02F
:1050100051DA13C066881FC046942AC01FF434C0FA
:10502000789C3EC01F8547C040A44FC0AAF156C01F
:105030002C655DC0DBF962C087A767C08B6C6BC055
:10504000FE436EC0992A70C0151D71C0151D71C038
:10505000992A70C0FE436EC08B6C6BC087A767C077
:10506000DBF962C02C655DC0AAF156C040A44FC0F8
:105070001F8547C0789C3EC01FF434C046942AC0A8
:1050800066881FC051DA13C0C89807C0F697F5BFED
:105090009A08DBBFB29DBFBF2F6EA3BFD49A86BF55
:1050A000FA7E52BF4DF316BFDC9DB5BEB37BF2BD99
:1050B000B37BF23DDC9DB53E4DF3163FFA7E523F89
:1050C000D49A863F2F6EA33FB29DBF3F9A08DB3F25
:1050D000F697F53FC898074051DA134066881F409D
:1050E00046942A401FF43440789C3E401F85474038
:1050F00040A44F40AAF156402C655D40DBF9624068
:1051000087A767408B6C6B40FE436E40992A7040C6
:105110000D0000000C0000000D0000001200000057
:10512000080100007F0100000D0200003C000000AB
:10513000500000005B000000660000006C000000F2
:10514000720000006451000800000020A800000068
:10515000FC4D00080C520008A80000207808000050
:105160000C4E0008000000000000000000000000DD
:105170000000000000A24A0400000000000000003F
:1051800001020304060708090000000000000000F7
:105190000000000000000000C80000000000000047
:1051A00000000200000000000000000000000000FD
:1051B000001501007F0200007F0300007F04000053
:1051C0007F0500000000000000000000000000005B
:1051D00000000000000000000000000000000000CF
:1051E00000000000000000000000000000000000BF
:1051F00000000000000000000000010203040102A2
:0C52000003040607080902040608000069
:0400000508000131BD
:00000001FF
